:10000000F32040F1172200801302B2FF137102FFA8
:10001000970100809381017FB722000093820280C4
:1000200073900230170300001303831773105330CB
:1000300073104030970300009383C32F1704008090
:10004000130444FC970400809384C4FB17050080CC
:10005000130545FB970500809385C5FA130600003C
:100060009306000013070000930700001308000028
:10007000930800001309000093090000130A000010
:10008000930A0000130B0000930B0000130C0000F8
:10009000930C0000130D0000930D0000130E0000E0
:1000A000930E0000130F0000930F0000638A0002FC
:1000B000970700009387870173905730736044302F
:1000C000736004306F00000D3747F4FF0321870091
:1000D0000326C7003707F4FF232207006F00C0057F
:1000E000638E8300635C940083A703002320F400E5
:1000F00093834300130444006FF0DFFE6358B500A0
:1001000023200500130545006FF05FFF1704000072
:1001100013044422970400009384C421635A94007A
:1001200083200400E7800000130444006FF01FFFE9
:10013000170600001306C60A0F00F00F0F1000008C
:10014000739002301305000093050000E7000600DD
:100150007310403073100534170500001305450473
:1001600073105530732440F1631404021704000027
:100170001304441C970400009384C41B635A940026
:1001800083200400E7800000130444006FF01FFF89
:1001900073001000730050106FF0DFFF7310043411
:1001A000732420341354F4016316040273241034AE
:1001B00013044400731014347324A03413743400F3
:1001C0001304D4FF63080400732410341304E4FF01
:1001D000731014347324003473002030130101FFB2
:1001E000130500002326110023248100EF00C0071F
:1001F00013050000130415001375F50FEF00C0067A
:100200001305A00FEF00C000130504006FF09FFE60
:10021000B707FEFF9305050003A507006F00400028
:10022000130101FF13860500930600001355A50076
:100230009305000023261100EF0000069395C501E9
:100240001355450033E5A500630A05006318000057
:100250001305F5FF130000006FF01FFF8320C1009E
:100260001301010167800000B707FCFF23A2A7006C
:1002700067800000130605001305000093F61500C3
:10028000638406003305C50093D5150013161600C8
:10029000E39605FE67800000130101FF232481001F
:1002A000130405002326110013050600938306009E
:1002B000130704001308060093070000130300004F
:1002C000130F0000B308E701937E1800B30FF3008B
:1002D000135EF70113581800B3B2E80093971700A4
:1002E00063860E00138F08003383F2011317170083
:1002F000B3E7C701E31808FC63860500EFF09FF73A
:1003000033036500638A030013050400938503002B
:10031000EFF05FF6330365008320C1000324810002
:1003200013050F009305030013010101678000000E
:00000001FF
